{
  "contractName": "Land",
  "abi": [
    {
      "inputs": [],
      "payable": false,
      "stateMutability": "nonpayable",
      "type": "constructor"
    },
    {
      "anonymous": false,
      "inputs": [
        {
          "indexed": true,
          "internalType": "uint256",
          "name": "_landId",
          "type": "uint256"
        }
      ],
      "name": "AddingLand",
      "type": "event"
    },
    {
      "anonymous": false,
      "inputs": [
        {
          "indexed": false,
          "internalType": "address",
          "name": "_sellerId",
          "type": "address"
        }
      ],
      "name": "Landrequested",
      "type": "event"
    },
    {
      "anonymous": false,
      "inputs": [
        {
          "indexed": false,
          "internalType": "address",
          "name": "_registrationId",
          "type": "address"
        }
      ],
      "name": "Registration",
      "type": "event"
    },
    {
      "anonymous": false,
      "inputs": [
        {
          "indexed": false,
          "internalType": "address",
          "name": "_id",
          "type": "address"
        }
      ],
      "name": "Rejected",
      "type": "event"
    },
    {
      "anonymous": false,
      "inputs": [
        {
          "indexed": false,
          "internalType": "address",
          "name": "_id",
          "type": "address"
        }
      ],
      "name": "Verified",
      "type": "event"
    },
    {
      "anonymous": false,
      "inputs": [
        {
          "indexed": false,
          "internalType": "address",
          "name": "_buyerId",
          "type": "address"
        }
      ],
      "name": "requestApproved",
      "type": "event"
    },
    {
      "constant": true,
      "inputs": [
        {
          "internalType": "address",
          "name": "",
          "type": "address"
        }
      ],
      "name": "BuyerMapping",
      "outputs": [
        {
          "internalType": "address",
          "name": "id",
          "type": "address"
        },
        {
          "internalType": "string",
          "name": "name",
          "type": "string"
        },
        {
          "internalType": "uint256",
          "name": "age",
          "type": "uint256"
        },
        {
          "internalType": "string",
          "name": "city",
          "type": "string"
        },
        {
          "internalType": "string",
          "name": "idNo",
          "type": "string"
        },
        {
          "internalType": "string",
          "name": "PANPin",
          "type": "string"
        },
        {
          "internalType": "string",
          "name": "document",
          "type": "string"
        },
        {
          "internalType": "string",
          "name": "email",
          "type": "string"
        }
      ],
      "payable": false,
      "stateMutability": "view",
      "type": "function"
    },
    {
      "constant": true,
      "inputs": [
        {
          "internalType": "address",
          "name": "",
          "type": "address"
        }
      ],
      "name": "BuyerRejection",
      "outputs": [
        {
          "internalType": "bool",
          "name": "",
          "type": "bool"
        }
      ],
      "payable": false,
      "stateMutability": "view",
      "type": "function"
    },
    {
      "constant": true,
      "inputs": [
        {
          "internalType": "address",
          "name": "",
          "type": "address"
        }
      ],
      "name": "BuyerVerification",
      "outputs": [
        {
          "internalType": "bool",
          "name": "",
          "type": "bool"
        }
      ],
      "payable": false,
      "stateMutability": "view",
      "type": "function"
    },
    {
      "constant": true,
      "inputs": [
        {
          "internalType": "uint256",
          "name": "",
          "type": "uint256"
        }
      ],
      "name": "InspectorMapping",
      "outputs": [
        {
          "internalType": "uint256",
          "name": "id",
          "type": "uint256"
        },
        {
          "internalType": "string",
          "name": "name",
          "type": "string"
        },
        {
          "internalType": "uint256",
          "name": "age",
          "type": "uint256"
        },
        {
          "internalType": "string",
          "name": "designation",
          "type": "string"
        }
      ],
      "payable": false,
      "stateMutability": "view",
      "type": "function"
    },
    {
      "constant": true,
      "inputs": [
        {
          "internalType": "uint256",
          "name": "",
          "type": "uint256"
        }
      ],
      "name": "LandOwner",
      "outputs": [
        {
          "internalType": "address",
          "name": "",
          "type": "address"
        }
      ],
      "payable": false,
      "stateMutability": "view",
      "type": "function"
    },
    {
      "constant": true,
      "inputs": [
        {
          "internalType": "uint256",
          "name": "",
          "type": "uint256"
        }
      ],
      "name": "LandVerification",
      "outputs": [
        {
          "internalType": "bool",
          "name": "",
          "type": "bool"
        }
      ],
      "payable": false,
      "stateMutability": "view",
      "type": "function"
    },
    {
      "constant": true,
      "inputs": [],
      "name": "Land_Inspector",
      "outputs": [
        {
          "internalType": "address",
          "name": "",
          "type": "address"
        }
      ],
      "payable": false,
      "stateMutability": "view",
      "type": "function"
    },
    {
      "constant": true,
      "inputs": [
        {
          "internalType": "uint256",
          "name": "",
          "type": "uint256"
        }
      ],
      "name": "PaymentReceived",
      "outputs": [
        {
          "internalType": "bool",
          "name": "",
          "type": "bool"
        }
      ],
      "payable": false,
      "stateMutability": "view",
      "type": "function"
    },
    {
      "constant": true,
      "inputs": [
        {
          "internalType": "address",
          "name": "",
          "type": "address"
        }
      ],
      "name": "RegisteredAddressMapping",
      "outputs": [
        {
          "internalType": "bool",
          "name": "",
          "type": "bool"
        }
      ],
      "payable": false,
      "stateMutability": "view",
      "type": "function"
    },
    {
      "constant": true,
      "inputs": [
        {
          "internalType": "address",
          "name": "",
          "type": "address"
        }
      ],
      "name": "RegisteredBuyerMapping",
      "outputs": [
        {
          "internalType": "bool",
          "name": "",
          "type": "bool"
        }
      ],
      "payable": false,
      "stateMutability": "view",
      "type": "function"
    },
    {
      "constant": true,
      "inputs": [
        {
          "internalType": "address",
          "name": "",
          "type": "address"
        }
      ],
      "name": "RegisteredSellerMapping",
      "outputs": [
        {
          "internalType": "bool",
          "name": "",
          "type": "bool"
        }
      ],
      "payable": false,
      "stateMutability": "view",
      "type": "function"
    },
    {
      "constant": true,
      "inputs": [
        {
          "internalType": "uint256",
          "name": "",
          "type": "uint256"
        }
      ],
      "name": "RequestStatus",
      "outputs": [
        {
          "internalType": "bool",
          "name": "",
          "type": "bool"
        }
      ],
      "payable": false,
      "stateMutability": "view",
      "type": "function"
    },
    {
      "constant": true,
      "inputs": [
        {
          "internalType": "uint256",
          "name": "",
          "type": "uint256"
        }
      ],
      "name": "RequestedLands",
      "outputs": [
        {
          "internalType": "bool",
          "name": "",
          "type": "bool"
        }
      ],
      "payable": false,
      "stateMutability": "view",
      "type": "function"
    },
    {
      "constant": true,
      "inputs": [
        {
          "internalType": "uint256",
          "name": "",
          "type": "uint256"
        }
      ],
      "name": "RequestsMapping",
      "outputs": [
        {
          "internalType": "uint256",
          "name": "reqId",
          "type": "uint256"
        },
        {
          "internalType": "address",
          "name": "sellerId",
          "type": "address"
        },
        {
          "internalType": "address",
          "name": "buyerId",
          "type": "address"
        },
        {
          "internalType": "uint256",
          "name": "landId",
          "type": "uint256"
        }
      ],
      "payable": false,
      "stateMutability": "view",
      "type": "function"
    },
    {
      "constant": true,
      "inputs": [
        {
          "internalType": "address",
          "name": "",
          "type": "address"
        }
      ],
      "name": "SellerMapping",
      "outputs": [
        {
          "internalType": "address",
          "name": "id",
          "type": "address"
        },
        {
          "internalType": "string",
          "name": "name",
          "type": "string"
        },
        {
          "internalType": "uint256",
          "name": "age",
          "type": "uint256"
        },
        {
          "internalType": "string",
          "name": "idNo",
          "type": "string"
        },
        {
          "internalType": "string",
          "name": "PANPin",
          "type": "string"
        },
        {
          "internalType": "string",
          "name": "landsOwned",
          "type": "string"
        },
        {
          "internalType": "string",
          "name": "document",
          "type": "string"
        }
      ],
      "payable": false,
      "stateMutability": "view",
      "type": "function"
    },
    {
      "constant": true,
      "inputs": [
        {
          "internalType": "address",
          "name": "",
          "type": "address"
        }
      ],
      "name": "SellerRejection",
      "outputs": [
        {
          "internalType": "bool",
          "name": "",
          "type": "bool"
        }
      ],
      "payable": false,
      "stateMutability": "view",
      "type": "function"
    },
    {
      "constant": true,
      "inputs": [
        {
          "internalType": "address",
          "name": "",
          "type": "address"
        }
      ],
      "name": "SellerVerification",
      "outputs": [
        {
          "internalType": "bool",
          "name": "",
          "type": "bool"
        }
      ],
      "payable": false,
      "stateMutability": "view",
      "type": "function"
    },
    {
      "constant": true,
      "inputs": [
        {
          "internalType": "uint256",
          "name": "",
          "type": "uint256"
        }
      ],
      "name": "buyers",
      "outputs": [
        {
          "internalType": "address",
          "name": "",
          "type": "address"
        }
      ],
      "payable": false,
      "stateMutability": "view",
      "type": "function"
    },
    {
      "constant": true,
      "inputs": [],
      "name": "buyersCount",
      "outputs": [
        {
          "internalType": "uint256",
          "name": "",
          "type": "uint256"
        }
      ],
      "payable": false,
      "stateMutability": "view",
      "type": "function"
    },
    {
      "constant": true,
      "inputs": [
        {
          "internalType": "uint256",
          "name": "",
          "type": "uint256"
        }
      ],
      "name": "heirarchy_arr",
      "outputs": [
        {
          "internalType": "address",
          "name": "id",
          "type": "address"
        },
        {
          "internalType": "string",
          "name": "name",
          "type": "string"
        },
        {
          "internalType": "uint256",
          "name": "age",
          "type": "uint256"
        },
        {
          "internalType": "string",
          "name": "idNo",
          "type": "string"
        },
        {
          "internalType": "string",
          "name": "PANPin",
          "type": "string"
        },
        {
          "internalType": "string",
          "name": "landsOwned",
          "type": "string"
        },
        {
          "internalType": "string",
          "name": "document",
          "type": "string"
        }
      ],
      "payable": false,
      "stateMutability": "view",
      "type": "function"
    },
    {
      "constant": true,
      "inputs": [],
      "name": "inspectorsCount",
      "outputs": [
        {
          "internalType": "uint256",
          "name": "",
          "type": "uint256"
        }
      ],
      "payable": false,
      "stateMutability": "view",
      "type": "function"
    },
    {
      "constant": true,
      "inputs": [
        {
          "internalType": "uint256",
          "name": "",
          "type": "uint256"
        },
        {
          "internalType": "uint256",
          "name": "",
          "type": "uint256"
        }
      ],
      "name": "land_id_to_ownermap",
      "outputs": [
        {
          "internalType": "address",
          "name": "id",
          "type": "address"
        },
        {
          "internalType": "string",
          "name": "name",
          "type": "string"
        },
        {
          "internalType": "uint256",
          "name": "age",
          "type": "uint256"
        },
        {
          "internalType": "string",
          "name": "idNo",
          "type": "string"
        },
        {
          "internalType": "string",
          "name": "PANPin",
          "type": "string"
        },
        {
          "internalType": "string",
          "name": "landsOwned",
          "type": "string"
        },
        {
          "internalType": "string",
          "name": "document",
          "type": "string"
        }
      ],
      "payable": false,
      "stateMutability": "view",
      "type": "function"
    },
    {
      "constant": true,
      "inputs": [
        {
          "internalType": "uint256",
          "name": "",
          "type": "uint256"
        }
      ],
      "name": "lands",
      "outputs": [
        {
          "internalType": "uint256",
          "name": "id",
          "type": "uint256"
        },
        {
          "internalType": "uint256",
          "name": "area",
          "type": "uint256"
        },
        {
          "internalType": "string",
          "name": "city",
          "type": "string"
        },
        {
          "internalType": "string",
          "name": "state",
          "type": "string"
        },
        {
          "internalType": "uint256",
          "name": "landPrice",
          "type": "uint256"
        },
        {
          "internalType": "uint256",
          "name": "propertyPID",
          "type": "uint256"
        },
        {
          "internalType": "uint256",
          "name": "physicalSurveyNumber",
          "type": "uint256"
        },
        {
          "internalType": "string",
          "name": "ipfsHash",
          "type": "string"
        },
        {
          "internalType": "string",
          "name": "document",
          "type": "string"
        }
      ],
      "payable": false,
      "stateMutability": "view",
      "type": "function"
    },
    {
      "constant": true,
      "inputs": [],
      "name": "landsCount",
      "outputs": [
        {
          "internalType": "uint256",
          "name": "",
          "type": "uint256"
        }
      ],
      "payable": false,
      "stateMutability": "view",
      "type": "function"
    },
    {
      "constant": true,
      "inputs": [],
      "name": "requestsCount",
      "outputs": [
        {
          "internalType": "uint256",
          "name": "",
          "type": "uint256"
        }
      ],
      "payable": false,
      "stateMutability": "view",
      "type": "function"
    },
    {
      "constant": true,
      "inputs": [
        {
          "internalType": "uint256",
          "name": "",
          "type": "uint256"
        }
      ],
      "name": "sellers",
      "outputs": [
        {
          "internalType": "address",
          "name": "",
          "type": "address"
        }
      ],
      "payable": false,
      "stateMutability": "view",
      "type": "function"
    },
    {
      "constant": true,
      "inputs": [],
      "name": "sellersCount",
      "outputs": [
        {
          "internalType": "uint256",
          "name": "",
          "type": "uint256"
        }
      ],
      "payable": false,
      "stateMutability": "view",
      "type": "function"
    },
    {
      "constant": true,
      "inputs": [
        {
          "internalType": "string",
          "name": "a",
          "type": "string"
        },
        {
          "internalType": "string",
          "name": "b",
          "type": "string"
        },
        {
          "internalType": "string",
          "name": "c",
          "type": "string"
        }
      ],
      "name": "concat",
      "outputs": [
        {
          "internalType": "string",
          "name": "",
          "type": "string"
        }
      ],
      "payable": false,
      "stateMutability": "pure",
      "type": "function"
    },
    {
      "constant": true,
      "inputs": [],
      "name": "getLandsCount",
      "outputs": [
        {
          "internalType": "uint256",
          "name": "",
          "type": "uint256"
        }
      ],
      "payable": false,
      "stateMutability": "view",
      "type": "function"
    },
    {
      "constant": true,
      "inputs": [],
      "name": "getBuyersCount",
      "outputs": [
        {
          "internalType": "uint256",
          "name": "",
          "type": "uint256"
        }
      ],
      "payable": false,
      "stateMutability": "view",
      "type": "function"
    },
    {
      "constant": true,
      "inputs": [],
      "name": "getSellersCount",
      "outputs": [
        {
          "internalType": "uint256",
          "name": "",
          "type": "uint256"
        }
      ],
      "payable": false,
      "stateMutability": "view",
      "type": "function"
    },
    {
      "constant": true,
      "inputs": [],
      "name": "getRequestsCount",
      "outputs": [
        {
          "internalType": "uint256",
          "name": "",
          "type": "uint256"
        }
      ],
      "payable": false,
      "stateMutability": "view",
      "type": "function"
    },
    {
      "constant": true,
      "inputs": [
        {
          "internalType": "uint256",
          "name": "i",
          "type": "uint256"
        }
      ],
      "name": "getArea",
      "outputs": [
        {
          "internalType": "uint256",
          "name": "",
          "type": "uint256"
        }
      ],
      "payable": false,
      "stateMutability": "view",
      "type": "function"
    },
    {
      "constant": true,
      "inputs": [
        {
          "internalType": "uint256",
          "name": "i",
          "type": "uint256"
        }
      ],
      "name": "getCity",
      "outputs": [
        {
          "internalType": "string",
          "name": "",
          "type": "string"
        }
      ],
      "payable": false,
      "stateMutability": "view",
      "type": "function"
    },
    {
      "constant": true,
      "inputs": [
        {
          "internalType": "uint256",
          "name": "i",
          "type": "uint256"
        }
      ],
      "name": "getState",
      "outputs": [
        {
          "internalType": "string",
          "name": "",
          "type": "string"
        }
      ],
      "payable": false,
      "stateMutability": "view",
      "type": "function"
    },
    {
      "constant": true,
      "inputs": [
        {
          "internalType": "uint256",
          "name": "i",
          "type": "uint256"
        }
      ],
      "name": "getPrice",
      "outputs": [
        {
          "internalType": "uint256",
          "name": "",
          "type": "uint256"
        }
      ],
      "payable": false,
      "stateMutability": "view",
      "type": "function"
    },
    {
      "constant": true,
      "inputs": [
        {
          "internalType": "uint256",
          "name": "i",
          "type": "uint256"
        }
      ],
      "name": "getPID",
      "outputs": [
        {
          "internalType": "uint256",
          "name": "",
          "type": "uint256"
        }
      ],
      "payable": false,
      "stateMutability": "view",
      "type": "function"
    },
    {
      "constant": true,
      "inputs": [
        {
          "internalType": "uint256",
          "name": "i",
          "type": "uint256"
        }
      ],
      "name": "getSurveyNumber",
      "outputs": [
        {
          "internalType": "uint256",
          "name": "",
          "type": "uint256"
        }
      ],
      "payable": false,
      "stateMutability": "view",
      "type": "function"
    },
    {
      "constant": true,
      "inputs": [
        {
          "internalType": "uint256",
          "name": "i",
          "type": "uint256"
        }
      ],
      "name": "getImage",
      "outputs": [
        {
          "internalType": "string",
          "name": "",
          "type": "string"
        }
      ],
      "payable": false,
      "stateMutability": "view",
      "type": "function"
    },
    {
      "constant": true,
      "inputs": [
        {
          "internalType": "uint256",
          "name": "i",
          "type": "uint256"
        }
      ],
      "name": "getDocument",
      "outputs": [
        {
          "internalType": "string",
          "name": "",
          "type": "string"
        }
      ],
      "payable": false,
      "stateMutability": "view",
      "type": "function"
    },
    {
      "constant": true,
      "inputs": [
        {
          "internalType": "uint256",
          "name": "id",
          "type": "uint256"
        }
      ],
      "name": "getLandOwner",
      "outputs": [
        {
          "internalType": "address",
          "name": "",
          "type": "address"
        }
      ],
      "payable": false,
      "stateMutability": "view",
      "type": "function"
    },
    {
      "constant": false,
      "inputs": [
        {
          "internalType": "address",
          "name": "_sellerId",
          "type": "address"
        }
      ],
      "name": "verifySeller",
      "outputs": [],
      "payable": false,
      "stateMutability": "nonpayable",
      "type": "function"
    },
    {
      "constant": false,
      "inputs": [
        {
          "internalType": "address",
          "name": "_sellerId",
          "type": "address"
        }
      ],
      "name": "rejectSeller",
      "outputs": [],
      "payable": false,
      "stateMutability": "nonpayable",
      "type": "function"
    },
    {
      "constant": false,
      "inputs": [
        {
          "internalType": "address",
          "name": "_buyerId",
          "type": "address"
        }
      ],
      "name": "verifyBuyer",
      "outputs": [],
      "payable": false,
      "stateMutability": "nonpayable",
      "type": "function"
    },
    {
      "constant": false,
      "inputs": [
        {
          "internalType": "address",
          "name": "_buyerId",
          "type": "address"
        }
      ],
      "name": "rejectBuyer",
      "outputs": [],
      "payable": false,
      "stateMutability": "nonpayable",
      "type": "function"
    },
    {
      "constant": false,
      "inputs": [
        {
          "internalType": "uint256",
          "name": "_landId",
          "type": "uint256"
        }
      ],
      "name": "verifyLand",
      "outputs": [],
      "payable": false,
      "stateMutability": "nonpayable",
      "type": "function"
    },
    {
      "constant": true,
      "inputs": [
        {
          "internalType": "uint256",
          "name": "_id",
          "type": "uint256"
        }
      ],
      "name": "isLandVerified",
      "outputs": [
        {
          "internalType": "bool",
          "name": "",
          "type": "bool"
        }
      ],
      "payable": false,
      "stateMutability": "view",
      "type": "function"
    },
    {
      "constant": true,
      "inputs": [
        {
          "internalType": "address",
          "name": "_id",
          "type": "address"
        }
      ],
      "name": "isVerified",
      "outputs": [
        {
          "internalType": "bool",
          "name": "",
          "type": "bool"
        }
      ],
      "payable": false,
      "stateMutability": "view",
      "type": "function"
    },
    {
      "constant": true,
      "inputs": [
        {
          "internalType": "address",
          "name": "_id",
          "type": "address"
        }
      ],
      "name": "isRejected",
      "outputs": [
        {
          "internalType": "bool",
          "name": "",
          "type": "bool"
        }
      ],
      "payable": false,
      "stateMutability": "view",
      "type": "function"
    },
    {
      "constant": true,
      "inputs": [
        {
          "internalType": "address",
          "name": "_id",
          "type": "address"
        }
      ],
      "name": "isSeller",
      "outputs": [
        {
          "internalType": "bool",
          "name": "",
          "type": "bool"
        }
      ],
      "payable": false,
      "stateMutability": "view",
      "type": "function"
    },
    {
      "constant": true,
      "inputs": [
        {
          "internalType": "address",
          "name": "_id",
          "type": "address"
        }
      ],
      "name": "isLandInspector",
      "outputs": [
        {
          "internalType": "bool",
          "name": "",
          "type": "bool"
        }
      ],
      "payable": false,
      "stateMutability": "view",
      "type": "function"
    },
    {
      "constant": true,
      "inputs": [
        {
          "internalType": "address",
          "name": "_id",
          "type": "address"
        }
      ],
      "name": "isBuyer",
      "outputs": [
        {
          "internalType": "bool",
          "name": "",
          "type": "bool"
        }
      ],
      "payable": false,
      "stateMutability": "view",
      "type": "function"
    },
    {
      "constant": true,
      "inputs": [
        {
          "internalType": "address",
          "name": "_id",
          "type": "address"
        }
      ],
      "name": "isRegistered",
      "outputs": [
        {
          "internalType": "bool",
          "name": "",
          "type": "bool"
        }
      ],
      "payable": false,
      "stateMutability": "view",
      "type": "function"
    },
    {
      "constant": false,
      "inputs": [
        {
          "internalType": "uint256",
          "name": "_area",
          "type": "uint256"
        },
        {
          "internalType": "string",
          "name": "_city",
          "type": "string"
        },
        {
          "internalType": "string",
          "name": "_state",
          "type": "string"
        },
        {
          "internalType": "uint256",
          "name": "landPrice",
          "type": "uint256"
        },
        {
          "internalType": "uint256",
          "name": "_propertyPID",
          "type": "uint256"
        },
        {
          "internalType": "uint256",
          "name": "_surveyNum",
          "type": "uint256"
        },
        {
          "internalType": "string",
          "name": "_ipfsHash",
          "type": "string"
        },
        {
          "internalType": "string",
          "name": "_document",
          "type": "string"
        }
      ],
      "name": "addLand",
      "outputs": [],
      "payable": false,
      "stateMutability": "nonpayable",
      "type": "function"
    },
    {
      "constant": false,
      "inputs": [
        {
          "internalType": "string",
          "name": "_name",
          "type": "string"
        },
        {
          "internalType": "uint256",
          "name": "_age",
          "type": "uint256"
        },
        {
          "internalType": "string",
          "name": "_idNo",
          "type": "string"
        },
        {
          "internalType": "string",
          "name": "_PANPin",
          "type": "string"
        },
        {
          "internalType": "string",
          "name": "_landsOwned",
          "type": "string"
        },
        {
          "internalType": "string",
          "name": "_document",
          "type": "string"
        }
      ],
      "name": "registerSeller",
      "outputs": [],
      "payable": false,
      "stateMutability": "nonpayable",
      "type": "function"
    },
    {
      "constant": false,
      "inputs": [
        {
          "internalType": "string",
          "name": "_name",
          "type": "string"
        },
        {
          "internalType": "uint256",
          "name": "_age",
          "type": "uint256"
        },
        {
          "internalType": "string",
          "name": "_idNo",
          "type": "string"
        },
        {
          "internalType": "string",
          "name": "_PANPin",
          "type": "string"
        },
        {
          "internalType": "string",
          "name": "_landsOwned",
          "type": "string"
        }
      ],
      "name": "updateSeller",
      "outputs": [],
      "payable": false,
      "stateMutability": "nonpayable",
      "type": "function"
    },
    {
      "constant": true,
      "inputs": [],
      "name": "getSeller",
      "outputs": [
        {
          "internalType": "address[]",
          "name": "",
          "type": "address[]"
        }
      ],
      "payable": false,
      "stateMutability": "view",
      "type": "function"
    },
    {
      "constant": true,
      "inputs": [
        {
          "internalType": "address",
          "name": "i",
          "type": "address"
        }
      ],
      "name": "getSellerDetails",
      "outputs": [
        {
          "internalType": "string",
          "name": "",
          "type": "string"
        },
        {
          "internalType": "uint256",
          "name": "",
          "type": "uint256"
        },
        {
          "internalType": "string",
          "name": "",
          "type": "string"
        },
        {
          "internalType": "string",
          "name": "",
          "type": "string"
        },
        {
          "internalType": "string",
          "name": "",
          "type": "string"
        },
        {
          "internalType": "string",
          "name": "",
          "type": "string"
        }
      ],
      "payable": false,
      "stateMutability": "view",
      "type": "function"
    },
    {
      "constant": false,
      "inputs": [
        {
          "internalType": "string",
          "name": "_name",
          "type": "string"
        },
        {
          "internalType": "uint256",
          "name": "_age",
          "type": "uint256"
        },
        {
          "internalType": "string",
          "name": "_city",
          "type": "string"
        },
        {
          "internalType": "string",
          "name": "_idNo",
          "type": "string"
        },
        {
          "internalType": "string",
          "name": "_PANPin",
          "type": "string"
        },
        {
          "internalType": "string",
          "name": "_document",
          "type": "string"
        },
        {
          "internalType": "string",
          "name": "_email",
          "type": "string"
        }
      ],
      "name": "registerBuyer",
      "outputs": [],
      "payable": false,
      "stateMutability": "nonpayable",
      "type": "function"
    },
    {
      "constant": false,
      "inputs": [
        {
          "internalType": "string",
          "name": "_name",
          "type": "string"
        },
        {
          "internalType": "uint256",
          "name": "_age",
          "type": "uint256"
        },
        {
          "internalType": "string",
          "name": "_city",
          "type": "string"
        },
        {
          "internalType": "string",
          "name": "_idNo",
          "type": "string"
        },
        {
          "internalType": "string",
          "name": "_email",
          "type": "string"
        },
        {
          "internalType": "string",
          "name": "_PANPin",
          "type": "string"
        }
      ],
      "name": "updateBuyer",
      "outputs": [],
      "payable": false,
      "stateMutability": "nonpayable",
      "type": "function"
    },
    {
      "constant": true,
      "inputs": [],
      "name": "getBuyer",
      "outputs": [
        {
          "internalType": "address[]",
          "name": "",
          "type": "address[]"
        }
      ],
      "payable": false,
      "stateMutability": "view",
      "type": "function"
    },
    {
      "constant": true,
      "inputs": [
        {
          "internalType": "address",
          "name": "i",
          "type": "address"
        }
      ],
      "name": "getBuyerDetails",
      "outputs": [
        {
          "internalType": "string",
          "name": "",
          "type": "string"
        },
        {
          "internalType": "string",
          "name": "",
          "type": "string"
        },
        {
          "internalType": "string",
          "name": "",
          "type": "string"
        },
        {
          "internalType": "string",
          "name": "",
          "type": "string"
        },
        {
          "internalType": "string",
          "name": "",
          "type": "string"
        },
        {
          "internalType": "uint256",
          "name": "",
          "type": "uint256"
        },
        {
          "internalType": "string",
          "name": "",
          "type": "string"
        }
      ],
      "payable": false,
      "stateMutability": "view",
      "type": "function"
    },
    {
      "constant": false,
      "inputs": [
        {
          "internalType": "address",
          "name": "_sellerId",
          "type": "address"
        },
        {
          "internalType": "uint256",
          "name": "_landId",
          "type": "uint256"
        }
      ],
      "name": "requestLand",
      "outputs": [],
      "payable": false,
      "stateMutability": "nonpayable",
      "type": "function"
    },
    {
      "constant": true,
      "inputs": [
        {
          "internalType": "uint256",
          "name": "i",
          "type": "uint256"
        }
      ],
      "name": "getRequestDetails",
      "outputs": [
        {
          "internalType": "address",
          "name": "",
          "type": "address"
        },
        {
          "internalType": "address",
          "name": "",
          "type": "address"
        },
        {
          "internalType": "uint256",
          "name": "",
          "type": "uint256"
        },
        {
          "internalType": "bool",
          "name": "",
          "type": "bool"
        }
      ],
      "payable": false,
      "stateMutability": "view",
      "type": "function"
    },
    {
      "constant": true,
      "inputs": [
        {
          "internalType": "uint256",
          "name": "_id",
          "type": "uint256"
        }
      ],
      "name": "isRequested",
      "outputs": [
        {
          "internalType": "bool",
          "name": "",
          "type": "bool"
        }
      ],
      "payable": false,
      "stateMutability": "view",
      "type": "function"
    },
    {
      "constant": true,
      "inputs": [
        {
          "internalType": "uint256",
          "name": "_id",
          "type": "uint256"
        }
      ],
      "name": "isApproved",
      "outputs": [
        {
          "internalType": "bool",
          "name": "",
          "type": "bool"
        }
      ],
      "payable": false,
      "stateMutability": "view",
      "type": "function"
    },
    {
      "constant": false,
      "inputs": [
        {
          "internalType": "uint256",
          "name": "_reqId",
          "type": "uint256"
        }
      ],
      "name": "approveRequest",
      "outputs": [],
      "payable": false,
      "stateMutability": "nonpayable",
      "type": "function"
    },
    {
      "constant": false,
      "inputs": [
        {
          "internalType": "uint256",
          "name": "_landId",
          "type": "uint256"
        },
        {
          "internalType": "address",
          "name": "_newOwner",
          "type": "address"
        }
      ],
      "name": "LandOwnershipTransfer",
      "outputs": [],
      "payable": false,
      "stateMutability": "nonpayable",
      "type": "function"
    },
    {
      "constant": true,
      "inputs": [
        {
          "internalType": "uint256",
          "name": "_landId",
          "type": "uint256"
        }
      ],
      "name": "isPaid",
      "outputs": [
        {
          "internalType": "bool",
          "name": "",
          "type": "bool"
        }
      ],
      "payable": false,
      "stateMutability": "view",
      "type": "function"
    },
    {
      "constant": false,
      "inputs": [
        {
          "internalType": "address payable",
          "name": "_receiver",
          "type": "address"
        },
        {
          "internalType": "uint256",
          "name": "_landId",
          "type": "uint256"
        }
      ],
      "name": "payment",
      "outputs": [],
      "payable": true,
      "stateMutability": "payable",
      "type": "function"
    },
    {
      "constant": true,
      "inputs": [
        {
          "internalType": "uint256",
          "name": "landid",
          "type": "uint256"
        }
      ],
      "name": "TrackLand",
      "outputs": [
        {
          "internalType": "string",
          "name": "",
          "type": "string"
        }
      ],
      "payable": false,
      "stateMutability": "view",
      "type": "function"
    }
  ],
  "bytecode": "0x60806040523480156200001157600080fd5b5060128054600160a060020a03191633179055604080518082018252600b81527f496e73706563746f7220310000000000000000000000000000000000000000006020808301919091528251808401909352600e83527f54656873696c204d616e6167657200000000000000000000000000000000000090830152620000a391602d90640100000000620000a9810204565b620001d7565b601780546001908101918290556040805160808101825283815260208082018881528284018890526060830187905260009586528482529290942081518155915180519194929362000102939085019291019062000132565b5060408201516002820155606082015180516200012a91600384019160209091019062000132565b505050505050565b828054600181600116156101000203166002900490600052602060002090601f016020900481019282601f106200017557805160ff1916838001178555620001a5565b82800160010185558215620001a5579182015b82811115620001a557825182559160200191906001019062000188565b50620001b3929150620001b7565b5090565b620001d491905b80821115620001b35760008155600101620001be565b90565b61452d80620001e76000396000f3fe60806040526004361061049d576000357c0100000000000000000000000000000000000000000000000000000000900480639dc1bfa91161027b578063dbd0e1b611610160578063e7572230116100d8578063f34d4c63116100a7578063f58f85b51161008c578063f58f85b514610d79578063f9c43bdf14610d99578063fbfa4b7f14610db95761049d565b8063f34d4c6314610d29578063f3f0c21814610d595761049d565b8063e757223014610cb4578063ee95feaf14610cd4578063f0d3a9df14610cf4578063f2aa821814610d095761049d565b8063e165af871161012f578063e261f1e511610114578063e261f1e514610c3f578063e4b2611514610c74578063e530c40014610c945761049d565b8063e165af8714610bff578063e1ecc79414610c1f5761049d565b8063dbd0e1b614610b85578063dd9d122d14610b9a578063dec091ad14610baf578063def936c314610bcf5761049d565b8063bed403c7116101f3578063cee26ed5116101c2578063d5bfc57e116101a7578063d5bfc57e14610b25578063d713065114610b45578063d7d1bbdb14610b655761049d565b8063cee26ed514610ae5578063d1760e6014610b055761049d565b8063bed403c714610a65578063c3c5a54714610a85578063c560b4e514610aa5578063cd392a8314610ac55761049d565b8063ab5170741161024a578063b3c8fe851161022f578063b3c8fe85146109fe578063b9209e3314610a30578063ba49a08c14610a505761049d565b8063ab5170741461099a578063b0a5dcd3146109ce5761049d565b80639dc1bfa91461091a578063a47d4c021461093a578063a4a0f6c01461095a578063a6dc41fb1461097a5761049d565b80634e2cba09116103a1578063773b63d51161031957806389d21354116102e8578063941e2426116102cd578063941e2426146108d0578063989376b4146108e55780639ae9711e146109055761049d565b806389d213541461089057806393383648146108b05761049d565b8063773b63d5146108105780637910867b1461083057806383546501146108505780638965cde1146108705761049d565b80636490c7a8116103705780636814800b116103555780636814800b1461079d57806368cfe6ee146107bd5780636cbf6cf8146107f05761049d565b80636490c7a81461076a57806367a09c231461078a5761049d565b80634e2cba09146106e8578063601e7c3414610708578063603daf9a1461072857806363f171431461074a5761049d565b80632607aafa116104345780633f9b250a116104035780634874e62d116103e85780634874e62d1461068857806348a46bd3146106a85780634daa9dae146106c85761049d565b80633f9b250a1461064857806344c9af28146106685761049d565b80632607aafa146105b35780632a55feec146105e05780632bcf7b1f146106005780633410452a146106335761049d565b8063170f390911610470578063170f39091461053c5780631869a38b1461055e5780631a07f76e1461057e5780631c9afd0f1461059e5761049d565b806307d56ac0146104a257806311ce462c146104d8578063155fec72146104fa57806316d9d66614610527575b600080fd5b3480156104ae57600080fd5b506104c26104bd366004613dc3565b610dce565b6040516104cf91906142c6565b60405180910390f35b3480156104e457600080fd5b506104f86104f3366004613b9a565b610de6565b005b34801561050657600080fd5b5061051a610515366004613dc3565b610ef6565b6040516104cf91906141ab565b34801561053357600080fd5b506104c2610f15565b34801561054857600080fd5b50610551610f1c565b6040516104cf919061400f565b34801561056a57600080fd5b50610551610579366004613dc3565b610f2b565b34801561058a57600080fd5b5061051a610599366004613dc3565b610f46565b3480156105aa57600080fd5b506104c2610f5b565b3480156105bf57600080fd5b506105d36105ce366004613dc3565b610f61565b6040516104cf91906141b9565b3480156105ec57600080fd5b5061051a6105fb3660046139d2565b611003565b34801561060c57600080fd5b5061062061061b366004613f21565b61102c565b6040516104cf9796959493929190614069565b34801561063f57600080fd5b506104c2611342565b34801561065457600080fd5b506105d3610663366004613dc3565b611348565b34801561067457600080fd5b506105d3610683366004613dc3565b6113b3565b34801561069457600080fd5b506105d36106a3366004613a32565b61141e565b3480156106b457600080fd5b5061051a6106c33660046139d2565b6115d1565b3480156106d457600080fd5b5061051a6106e3366004613dc3565b61161d565b3480156106f457600080fd5b506104f8610703366004613c98565b611632565b34801561071457600080fd5b5061051a6107233660046139d2565b611839565b34801561073457600080fd5b5061073d61184e565b6040516104cf9190614193565b34801561075657600080fd5b5061051a6107653660046139d2565b6118b0565b34801561077657600080fd5b506104c2610785366004613dc3565b6118c5565b6104f86107983660046139f8565b6118da565b3480156107a957600080fd5b506104f86107b83660046139d2565b611927565b3480156107c957600080fd5b506107dd6107d83660046139d2565b611997565b6040516104cf97969594939291906141ca565b3480156107fc57600080fd5b5061051a61080b366004613dc3565b611d48565b34801561081c57600080fd5b506105d361082b366004613dc3565b611d67565b34801561083c57600080fd5b5061051a61084b366004613dc3565b611f98565b34801561085c57600080fd5b5061051a61086b366004613dc3565b611fb7565b34801561087c57600080fd5b506104f861088b3660046139d2565b611fcc565b34801561089c57600080fd5b5061051a6108ab366004613dc3565b612031565b3480156108bc57600080fd5b506104f86108cb366004613b9a565b612046565b3480156108dc57600080fd5b506104c2612228565b3480156108f157600080fd5b5061051a6109003660046139d2565b61222e565b34801561091157600080fd5b506104c2612243565b34801561092657600080fd5b50610551610935366004613dc3565b612249565b34801561094657600080fd5b5061051a6109553660046139d2565b612264565b34801561096657600080fd5b506104c2610975366004613dc3565b612279565b34801561098657600080fd5b5061051a6109953660046139d2565b61228e565b3480156109a657600080fd5b506109ba6109b53660046139d2565b6122a3565b6040516104cf9897969594939291906140f3565b3480156109da57600080fd5b506109ee6109e9366004613dc3565b61262f565b6040516104cf94939291906142d4565b348015610a0a57600080fd5b50610a1e610a193660046139d2565b612663565b6040516104cf9695949392919061424c565b348015610a3c57600080fd5b5061051a610a4b3660046139d2565b612979565b348015610a5c57600080fd5b506104c26129c4565b348015610a7157600080fd5b506104f8610a80366004613de1565b6129ca565b348015610a9157600080fd5b5061051a610aa03660046139d2565b612bc4565b348015610ab157600080fd5b506104f8610ac0366004613ac6565b612bed565b348015610ad157600080fd5b5061051a610ae0366004613dc3565b612cd4565b348015610af157600080fd5b50610551610b00366004613dc3565b612cf3565b348015610b1157600080fd5b506104f8610b203660046139d2565b612d1a565b348015610b3157600080fd5b50610620610b40366004613dc3565b612d7f565b348015610b5157600080fd5b506105d3610b60366004613dc3565b612e0e565b348015610b7157600080fd5b506104f8610b80366004613dc3565b612e7c565b348015610b9157600080fd5b5061073d612eb9565b348015610ba657600080fd5b506104c2612f19565b348015610bbb57600080fd5b50610620610bca3660046139d2565b612f1f565b348015610bdb57600080fd5b50610bef610bea366004613dc3565b612f9b565b6040516104cf9493929190614309565b348015610c0b57600080fd5b5061051a610c1a3660046139d2565b6130d9565b348015610c2b57600080fd5b506104f8610c3a3660046139d2565b613102565b348015610c4b57600080fd5b50610c5f610c5a366004613dc3565b613167565b6040516104cf99989796959493929190614354565b348015610c8057600080fd5b5061051a610c8f3660046139d2565b6133d4565b348015610ca057600080fd5b506104f8610caf366004613e11565b6133e9565b348015610cc057600080fd5b506104c2610ccf366004613dc3565b613694565b348015610ce057600080fd5b5061051a610cef3660046139d2565b6136a9565b348015610d0057600080fd5b506104c26136d2565b348015610d1557600080fd5b50610551610d24366004613dc3565b6136d8565b348015610d3557600080fd5b50610d49610d44366004613dc3565b6136e5565b6040516104cf949392919061402b565b348015610d6557600080fd5b506104f8610d743660046139f8565b613727565b348015610d8557600080fd5b5061051a610d943660046139d2565b61383c565b348015610da557600080fd5b506104f8610db4366004613dc3565b613851565b348015610dc557600080fd5b506104c261387e565b6000818152602081905260409020600501545b919050565b3360009081526005602052604090205460ff168015610e1b575033600081815260036020526040902054600160a060020a0316145b610e2457600080fd5b3360009081526003602090815260409091208751610e4a92600190920191890190613884565b50336000908152600360208181526040909220600281018890558651610e7893919092019190870190613884565b503360009081526003602090815260409091208451610e9f92600490920191860190613884565b503360009081526003602090815260409091208351610ec692600790920191850190613884565b503360009081526003602090815260409091208251610eed92600590920191840190613884565b50505050505050565b6000818152600f602052604081205460ff1615610de157506001610de1565b6016545b90565b601254600160a060020a031681565b6000908152600d6020526040902054600160a060020a031690565b60106020526000908152604090205460ff1681565b60165481565b6000818152602081815260409182902060070180548351601f6002600019610100600186161502019093169290920491820184900484028101840190945280845260609392830182828015610ff75780601f10610fcc57610100808354040283529160200191610ff7565b820191906000526020600020905b815481529060010190602001808311610fda57829003601f168201915b50505050509050919050565b600160a060020a03811660009081526007602052604081205460ff1615610de157506001610de1565b6011602052816000526040600020818154811061104557fe5b600091825260209182902060079091020180546001808301805460408051601f6002600019968516156101000296909601909316949094049182018790048702840187019052808352600160a060020a039093169650929450928301828280156110f05780601f106110c5576101008083540402835291602001916110f0565b820191906000526020600020905b8154815290600101906020018083116110d357829003601f168201915b505050506002838101546003850180546040805160206001841615610100026000190190931695909504601f8101839004830286018301909152808552959692959294509091908301828280156111885780601f1061115d57610100808354040283529160200191611188565b820191906000526020600020905b81548152906001019060200180831161116b57829003601f168201915b5050505060048301805460408051602060026001851615610100026000190190941693909304601f81018490048402820184019092528181529495949350908301828280156112185780601f106111ed57610100808354040283529160200191611218565b820191906000526020600020905b8154815290600101906020018083116111fb57829003601f168201915b5050505060058301805460408051602060026001851615610100026000190190941693909304601f81018490048402820184019092528181529495949350908301828280156112a85780601f1061127d576101008083540402835291602001916112a8565b820191906000526020600020905b81548152906001019060200180831161128b57829003601f168201915b5050505060068301805460408051602060026001851615610100026000190190941693909304601f81018490048402820184019092528181529495949350908301828280156113385780601f1061130d57610100808354040283529160200191611338565b820191906000526020600020905b81548152906001019060200180831161131b57829003601f168201915b5050505050905087565b601a5490565b6000818152602081815260409182902060080180548351601f6002600019610100600186161502019093169290920491820184900484028101840190945280845260609392830182828015610ff75780601f10610fcc57610100808354040283529160200191610ff7565b6000818152602081815260409182902060030180548351601f6002600019610100600186161502019093169290920491820184900484028101840190945280845260609392830182828015610ff75780601f10610fcc57610100808354040283529160200191610ff7565b60608084905060608490506060849050606081518351855101016040519080825280601f01601f191660200182016040528015611462576020820181803883390190505b509050806000805b86518110156114da5786818151811061147f57fe5b602001015160f860020a900460f860020a028383806001019450815181106114a357fe5b60200101907effffffffffffffffffffffffffffffffffffffffffffffffffffffffffffff1916908160001a90535060010161146a565b5060005b855181101561154e578581815181106114f357fe5b602001015160f860020a900460f860020a0283838060010194508151811061151757fe5b60200101907effffffffffffffffffffffffffffffffffffffffffffffffffffffffffffff1916908160001a9053506001016114de565b5060005b84518110156115c25784818151811061156757fe5b602001015160f860020a900460f860020a0283838060010194508151811061158b57fe5b60200101907effffffffffffffffffffffffffffffffffffffffffffffffffffffffffffff1916908160001a905350600101611552565b50909998505050505050505050565b600160a060020a03811660009081526009602052604081205460ff16806116105750600160a060020a0382166000908152600b602052604090205460ff165b15610de157506001610de1565b600f6020526000908152604090205460ff1681565b3360009081526005602052604090205460ff161561164f57600080fd5b3360008181526005602090815260408083208054600160ff1991821681179092556007845282852080549091168217905560198054820190558151610100810183528581528084018d81528184018d9052606082018c9052608082018b905260a082018a905260c0820189905260e0820188905295855260038452919093208151815473ffffffffffffffffffffffffffffffffffffffff1916600160a060020a039091161781559351805191949361170e9390850192910190613884565b506040820151600282015560608201518051611734916003840191602090910190613884565b5060808201518051611750916004840191602090910190613884565b5060a0820151805161176c916005840191602090910190613884565b5060c08201518051611788916006840191602090910190613884565b5060e082015180516117a4916007840191602090910190613884565b5050601480546001810182556000919091527fce6d7b5282bd9a3661ae061feed1dbda4e52ab073b1f9285be6e155d9c38d4ec01805473ffffffffffffffffffffffffffffffffffffffff1916339081179091556040517f478f5152d8fc568db3f8de9fb402fd9d98a1a7541ecfe434e59cf574fbfc55249250611828919061401d565b60405180910390a150505050505050565b60066020526000908152604090205460ff1681565b606060148054806020026020016040519081016040528092919081815260200182805480156118a657602002820191906000526020600020905b8154600160a060020a03168152600190910190602001808311611888575b5050505050905090565b60096020526000908152604090205460ff1681565b60009081526020819052604090206001015490565b600081815260106020526040808220805460ff1916600117905551600160a060020a038416913480156108fc02929091818181858888f1935050505015801561192257600080fd5b505050565b611930336130d9565b61193957600080fd5b600160a060020a0381166000908152600a602052604090819020805460ff19166001179055517f6a6455914f452787eb3985452aceedc1000fb545e394eb3b370e3d08958e0a5b9061198c90839061400f565b60405180910390a150565b600160a060020a03811660009081526003602081815260408084206002808201546001808401805486519281161561010002600019011693909304601f81018790048702820187019095528481526060978897889788978897939688969095938501946005810194600682019460078301946004909301928991830182828015611a625780601f10611a3757610100808354040283529160200191611a62565b820191906000526020600020905b815481529060010190602001808311611a4557829003601f168201915b5050895460408051602060026001851615610100026000190190941693909304601f8101849004840282018401909252818152959c508b945092508401905082828015611af05780601f10611ac557610100808354040283529160200191611af0565b820191906000526020600020905b815481529060010190602001808311611ad357829003601f168201915b5050885460408051602060026001851615610100026000190190941693909304601f8101849004840282018401909252818152959b508a945092508401905082828015611b7e5780601f10611b5357610100808354040283529160200191611b7e565b820191906000526020600020905b815481529060010190602001808311611b6157829003601f168201915b5050875460408051602060026001851615610100026000190190941693909304601f8101849004840282018401909252818152959a5089945092508401905082828015611c0c5780601f10611be157610100808354040283529160200191611c0c565b820191906000526020600020905b815481529060010190602001808311611bef57829003601f168201915b5050865460408051602060026001851615610100026000190190941693909304601f810184900484028201840190925281815295995088945092508401905082828015611c9a5780601f10611c6f57610100808354040283529160200191611c9a565b820191906000526020600020905b815481529060010190602001808311611c7d57829003601f168201915b5050845460408051602060026001851615610100026000190190941693909304601f810184900484028201840190925281815295985086945092508401905082828015611d285780601f10611cfd57610100808354040283529160200191611d28565b820191906000526020600020905b815481529060010190602001808311611d0b57829003601f168201915b505050505090509650965096509650965096509650919395979092949650565b6000818152600c602052604081205460ff1615610de157506001610de1565b6060600081805b600085815260116020526040902054831015611f905760008581526011602052604090208054611f41919085908110611da357fe5b6000918252602091829020600360079092020101805460408051601f6002600019610100600187161502019094169390930492830185900485028101850190915281815292830182828015611e395780601f10611e0e57610100808354040283529160200191611e39565b820191906000526020600020905b815481529060010190602001808311611e1c57829003601f168201915b50505050506040518060400160405280600181526020017f3a00000000000000000000000000000000000000000000000000000000000000815250601160008981526020019081526020016000208681548110611e9257fe5b90600052602060002090600702016001018054600181600116156101000203166002900480601f016020809104026020016040519081016040528092919081815260200182805460018160011615610100020316600290048015611f375780601f10611f0c57610100808354040283529160200191611f37565b820191906000526020600020905b815481529060010190602001808311611f1a57829003601f168201915b505050505061141e565b9050611f83826040518060400160405280600181526020017f2c000000000000000000000000000000000000000000000000000000000000008152508361141e565b6001909301929150611d6e565b509392505050565b6000818152600e602052604081205460ff1615610de157506001610de1565b600c6020526000908152604090205460ff1681565b611fd5336130d9565b611fde57600080fd5b600160a060020a0381166000908152600b602052604090819020805460ff19166001179055517faf77f8960cf590e245ec8b6d41c193a5dcacad8986ae4eb57ac9e5be7b6af0319061198c90839061400f565b600e6020526000908152604090205460ff1681565b3360009081526005602052604090205460ff161561206357600080fd5b3360008181526005602090815260408083208054600160ff199182168117909255600684528285208054909116821790556018805482019055815160e0810183528581528084018c81528184018c9052606082018b9052608082018a905260a0820189905260c0820188905295855260028452919093208151815473ffffffffffffffffffffffffffffffffffffffff1916600160a060020a039091161781559351805191949361211a9390850192910190613884565b506040820151600282015560608201518051612140916003840191602090910190613884565b506080820151805161215c916004840191602090910190613884565b5060a08201518051612178916005840191602090910190613884565b5060c08201518051612194916006840191602090910190613884565b5050601380546001810182556000919091527f66de8ffda797e3de9c05e8fc57b3bf0ec28a930d40b0d285d93c06501cf6a09001805473ffffffffffffffffffffffffffffffffffffffff1916339081179091556040517f478f5152d8fc568db3f8de9fb402fd9d98a1a7541ecfe434e59cf574fbfc55249250612218919061401d565b60405180910390a1505050505050565b60175481565b600b6020526000908152604090205460ff1681565b60185481565b600d60205260009081526040902054600160a060020a031681565b60076020526000908152604090205460ff1681565b60009081526020819052604090206006015490565b600a6020526000908152604090205460ff1681565b6003602090815260009182526040918290208054600180830180548651600261010094831615949094026000190190911692909204601f8101869004860283018601909652858252600160a060020a0390921694929390929083018282801561234d5780601f106123225761010080835404028352916020019161234d565b820191906000526020600020905b81548152906001019060200180831161233057829003601f168201915b505050506002838101546003850180546040805160206001841615610100026000190190931695909504601f8101839004830286018301909152808552959692959294509091908301828280156123e55780601f106123ba576101008083540402835291602001916123e5565b820191906000526020600020905b8154815290600101906020018083116123c857829003601f168201915b5050505060048301805460408051602060026001851615610100026000190190941693909304601f81018490048402820184019092528181529495949350908301828280156124755780601f1061244a57610100808354040283529160200191612475565b820191906000526020600020905b81548152906001019060200180831161245857829003601f168201915b5050505060058301805460408051602060026001851615610100026000190190941693909304601f81018490048402820184019092528181529495949350908301828280156125055780601f106124da57610100808354040283529160200191612505565b820191906000526020600020905b8154815290600101906020018083116124e857829003601f168201915b5050505060068301805460408051602060026001851615610100026000190190941693909304601f81018490048402820184019092528181529495949350908301828280156125955780601f1061256a57610100808354040283529160200191612595565b820191906000526020600020905b81548152906001019060200180831161257857829003601f168201915b5050505060078301805460408051602060026001851615610100026000190190941693909304601f81018490048402820184019092528181529495949350908301828280156126255780601f106125fa57610100808354040283529160200191612625565b820191906000526020600020905b81548152906001019060200180831161260857829003601f168201915b5050505050905088565b60046020526000908152604090208054600182015460028301546003909301549192600160a060020a039182169291169084565b600160a060020a0381166000908152600260208181526040808420808401546001808301805485519281161561010002600019011696909604601f8101869004860282018601909452838152606096958795869586958695939460038201936004830193600584019360060192918891908301828280156127255780601f106126fa57610100808354040283529160200191612725565b820191906000526020600020905b81548152906001019060200180831161270857829003601f168201915b5050875460408051602060026001851615610100026000190190941693909304601f8101849004840282018401909252818152959b50899450925084019050828280156127b35780601f10612788576101008083540402835291602001916127b3565b820191906000526020600020905b81548152906001019060200180831161279657829003601f168201915b5050865460408051602060026001851615610100026000190190941693909304601f8101849004840282018401909252818152959950889450925084019050828280156128415780601f1061281657610100808354040283529160200191612841565b820191906000526020600020905b81548152906001019060200180831161282457829003601f168201915b5050855460408051602060026001851615610100026000190190941693909304601f8101849004840282018401909252818152959850879450925084019050828280156128cf5780601f106128a4576101008083540402835291602001916128cf565b820191906000526020600020905b8154815290600101906020018083116128b257829003601f168201915b5050845460408051602060026001851615610100026000190190941693909304601f81018490048402820184019092528181529597508694509250840190508282801561295d5780601f106129325761010080835404028352916020019161295d565b820191906000526020600020905b81548152906001019060200180831161294057829003601f168201915b5050505050905095509550955095509550955091939550919395565b600160a060020a03811660009081526008602052604081205460ff16806116105750600160a060020a0382166000908152600a602052604090205460ff1615610de157506001610de1565b60195481565b6129d3336130d9565b6129dc57600080fd5b6000828152600d60205260408120805473ffffffffffffffffffffffffffffffffffffffff1916600160a060020a0384161790556060818180808080612a2189611997565b959c509a5092985092965094509092509050612a3b613902565b506040805160e081018252600160a060020a038b8116825260208083018b81526000848601819052606085018a90526080850189905285518087018752600a81527f6c616e645f6f776e6564000000000000000000000000000000000000000000008185015260a086015285518087018752600881527f646f63756d656e740000000000000000000000000000000000000000000000008185015260c086015260165481526011835294852080546001808201808455928852968490208651600790920201805473ffffffffffffffffffffffffffffffffffffffff1916919095161784559051805194959194869493612b39938501920190613884565b506040820151600282015560608201518051612b5f916003840191602090910190613884565b5060808201518051612b7b916004840191602090910190613884565b5060a08201518051612b97916005840191602090910190613884565b5060c08201518051612bb3916006840191602090910190613884565b505050505050505050505050505050565b600160a060020a03811660009081526005602052604081205460ff1615610de157506001610de1565b3360009081526005602052604090205460ff168015612c22575033600081815260026020526040902054600160a060020a0316145b612c2b57600080fd5b3360009081526002602090815260409091208651612c5192600190920191880190613884565b503360009081526002602081815260409092209081018690558451612c7e92600390920191860190613884565b503360009081526002602090815260409091208351612ca592600490920191850190613884565b503360009081526002602090815260409091208251612ccc92600590920191840190613884565b505050505050565b60008181526010602052604081205460ff1615610de157506001610de1565b60138181548110612d0057fe5b600091825260209091200154600160a060020a0316905081565b612d23336130d9565b612d2c57600080fd5b600160a060020a03811660009081526008602052604090819020805460ff19166001179055517f6a6455914f452787eb3985452aceedc1000fb545e394eb3b370e3d08958e0a5b9061198c90839061400f565b60158181548110612d8c57fe5b600091825260209182902060079091020180546001808301805460408051601f6002600019968516156101000296909601909316949094049182018790048702840187019052808352600160a060020a0390931695509293909291908301828280156110f05780601f106110c5576101008083540402835291602001916110f0565b600081815260208181526040918290206002908101805484516001821615610100026000190190911692909204601f81018490048402830184019094528382526060939192909190830182828015610ff75780601f10610fcc57610100808354040283529160200191610ff7565b612e85336136a9565b8015612e955750612e9533612979565b612e9e57600080fd5b6000908152600e60205260409020805460ff19166001179055565b606060138054806020026020016040519081016040528092919081815260200182805480156118a657602002820191906000526020600020908154600160a060020a03168152600190910190602001808311611888575050505050905090565b60185490565b6002602081815260009283526040928390208054600180830180548751601f60001994831615610100029490940190911696909604918201859004850286018501909652808552600160a060020a03909116949193928301828280156110f05780601f106110c5576101008083540402835291602001916110f0565b600160208181526000928352604092839020805481840180548651600296821615610100026000190190911695909504601f810185900485028601850190965285855290949193929091908301828280156130375780601f1061300c57610100808354040283529160200191613037565b820191906000526020600020905b81548152906001019060200180831161301a57829003601f168201915b505050506002838101546003850180546040805160206001841615610100026000190190931695909504601f8101839004830286018301909152808552959692959294509091908301828280156130cf5780601f106130a4576101008083540402835291602001916130cf565b820191906000526020600020905b8154815290600101906020018083116130b257829003601f168201915b5050505050905084565b601254600090600160a060020a03838116911614156130fa57506001610de1565b506000610de1565b61310b336130d9565b61311457600080fd5b600160a060020a03811660009081526009602052604090819020805460ff19166001179055517faf77f8960cf590e245ec8b6d41c193a5dcacad8986ae4eb57ac9e5be7b6af0319061198c90839061400f565b6000602081815291815260409081902080546001808301546002808501805487519481161561010002600019011691909104601f810188900488028401880190965285835292959094919291908301828280156132055780601f106131da57610100808354040283529160200191613205565b820191906000526020600020905b8154815290600101906020018083116131e857829003601f168201915b5050505060038301805460408051602060026001851615610100026000190190941693909304601f81018490048402820184019092528181529495949350908301828280156132955780601f1061326a57610100808354040283529160200191613295565b820191906000526020600020905b81548152906001019060200180831161327857829003601f168201915b505050600484015460058501546006860154600787018054604080516020601f6002600019610100600188161502019095169490940493840181900481028201810190925282815298999598949750929550909183018282801561333a5780601f1061330f5761010080835404028352916020019161333a565b820191906000526020600020905b81548152906001019060200180831161331d57829003601f168201915b5050505060088301805460408051602060026001851615610100026000190190941693909304601f81018490048402820184019092528181529495949350908301828280156133ca5780601f1061339f576101008083540402835291602001916133ca565b820191906000526020600020905b8154815290600101906020018083116133ad57829003601f168201915b5050505050905089565b60086020526000908152604090205460ff1681565b6133f2336136a9565b8015613402575061340233612979565b61340b57600080fd5b60168054600190810191829055604080516101208101825283815260208082018d81528284018d8152606084018d9052608084018c905260a084018b905260c084018a905260e084018990526101008401889052600096875286835293909520825181559451938501939093559051805191939261349192600285019290910190613884565b50606082015180516134ad916003840191602090910190613884565b506080820151600482015560a0820151600582015560c0820151600682015560e082015180516134e7916007840191602090910190613884565b506101008201518051613504916008840191602090910190613884565b50506016546000908152600d60205260408120805473ffffffffffffffffffffffffffffffffffffffff19163390811790915560609250829081908190819061354c90612663565b949a50929850909650945092509050613563613902565b506040805160e0810182523381526020808201898152828401899052606083018890526080830187905260a0830186905260c0830185905260165460009081526011835293842080546001808201808455928752958490208551600790920201805473ffffffffffffffffffffffffffffffffffffffff1916600160a060020a0390921691909117815591518051949591948694613605938501920190613884565b50604082015160028201556060820151805161362b916003840191602090910190613884565b5060808201518051613647916004840191602090910190613884565b5060a08201518051613663916005840191602090910190613884565b5060c0820151805161367f916006840191602090910190613884565b50505050505050505050505050505050505050565b60009081526020819052604090206004015490565b600160a060020a03811660009081526006602052604081205460ff1615610de157506001610de1565b60195490565b60148181548110612d0057fe5b600090815260046020908152604080832060018101546002820154600390920154600e9094529190932054600160a060020a0391821694919093169260ff1690565b61373033611003565b8015613740575061374033612979565b61374957600080fd5b601a8054600190810180835560408051608081018252828152600160a060020a03808816602080840191825233848601908152606085018a8152600097885260048352868820955186559251858901805491861673ffffffffffffffffffffffffffffffffffffffff199283161790559051600286018054919095169116179092555160039092019190915584548352600e8152818320805460ff1990811690915594548352600f9052908190208054909316909117909155517fc67eb70629da758128cec22f7e36ad0676066ad4df9b66e8ba58a30c1ab4075b9061383090849061400f565b60405180910390a15050565b60056020526000908152604090205460ff1681565b61385a336130d9565b61386357600080fd5b6000908152600c60205260409020805460ff19166001179055565b601a5481565b828054600181600116156101000203166002900490600052602060002090601f016020900481019282601f106138c557805160ff19168380011785556138f2565b828001600101855582156138f2579182015b828111156138f25782518255916020019190600101906138d7565b506138fe929150613948565b5090565b6040518060e001604052806000600160a060020a031681526020016060815260200160008152602001606081526020016060815260200160608152602001606081525090565b610f1991905b808211156138fe576000815560010161394e565b803561396d816144ca565b92915050565b600082601f83011261398457600080fd5b81356139976139928261441c565b6143f5565b915080825260208301602083018583830111156139b357600080fd5b6139be838284614484565b50505092915050565b803561396d816144e1565b6000602082840312156139e457600080fd5b60006139f08484613962565b949350505050565b60008060408385031215613a0b57600080fd5b6000613a178585613962565b9250506020613a28858286016139c7565b9150509250929050565b600080600060608486031215613a4757600080fd5b833567ffffffffffffffff811115613a5e57600080fd5b613a6a86828701613973565b935050602084013567ffffffffffffffff811115613a8757600080fd5b613a9386828701613973565b925050604084013567ffffffffffffffff811115613ab057600080fd5b613abc86828701613973565b9150509250925092565b600080600080600060a08688031215613ade57600080fd5b853567ffffffffffffffff811115613af557600080fd5b613b0188828901613973565b9550506020613b12888289016139c7565b945050604086013567ffffffffffffffff811115613b2f57600080fd5b613b3b88828901613973565b935050606086013567ffffffffffffffff811115613b5857600080fd5b613b6488828901613973565b925050608086013567ffffffffffffffff811115613b8157600080fd5b613b8d88828901613973565b9150509295509295909350565b60008060008060008060c08789031215613bb357600080fd5b863567ffffffffffffffff811115613bca57600080fd5b613bd689828a01613973565b9650506020613be789828a016139c7565b955050604087013567ffffffffffffffff811115613c0457600080fd5b613c1089828a01613973565b945050606087013567ffffffffffffffff811115613c2d57600080fd5b613c3989828a01613973565b935050608087013567ffffffffffffffff811115613c5657600080fd5b613c6289828a01613973565b92505060a087013567ffffffffffffffff811115613c7f57600080fd5b613c8b89828a01613973565b9150509295509295509295565b600080600080600080600060e0888a031215613cb357600080fd5b873567ffffffffffffffff811115613cca57600080fd5b613cd68a828b01613973565b9750506020613ce78a828b016139c7565b965050604088013567ffffffffffffffff811115613d0457600080fd5b613d108a828b01613973565b955050606088013567ffffffffffffffff811115613d2d57600080fd5b613d398a828b01613973565b945050608088013567ffffffffffffffff811115613d5657600080fd5b613d628a828b01613973565b93505060a088013567ffffffffffffffff811115613d7f57600080fd5b613d8b8a828b01613973565b92505060c088013567ffffffffffffffff811115613da857600080fd5b613db48a828b01613973565b91505092959891949750929550565b600060208284031215613dd557600080fd5b60006139f084846139c7565b60008060408385031215613df457600080fd5b6000613e0085856139c7565b9250506020613a2885828601613962565b600080600080600080600080610100898b031215613e2e57600080fd5b6000613e3a8b8b6139c7565b985050602089013567ffffffffffffffff811115613e5757600080fd5b613e638b828c01613973565b975050604089013567ffffffffffffffff811115613e8057600080fd5b613e8c8b828c01613973565b9650506060613e9d8b828c016139c7565b9550506080613eae8b828c016139c7565b94505060a0613ebf8b828c016139c7565b93505060c089013567ffffffffffffffff811115613edc57600080fd5b613ee88b828c01613973565b92505060e089013567ffffffffffffffff811115613f0557600080fd5b613f118b828c01613973565b9150509295985092959890939650565b60008060408385031215613f3457600080fd5b6000613a1785856139c7565b6000613f4c8383613f63565b505060200190565b613f5d81614473565b82525050565b613f5d81614457565b6000613f778261444a565b613f81818561444e565b9350613f8c83614444565b8060005b83811015613fba578151613fa48882613f40565b9750613faf83614444565b925050600101613f90565b509495945050505050565b613f5d81614462565b6000613fd98261444a565b613fe3818561444e565b9350613ff3818560208601614490565b613ffc816144c0565b9093019392505050565b613f5d81610f19565b6020810161396d8284613f63565b6020810161396d8284613f54565b608081016140398287613f63565b6140466020830186613f63565b6140536040830185614006565b6140606060830184613fc5565b95945050505050565b60e08101614077828a613f63565b81810360208301526140898189613fce565b90506140986040830188614006565b81810360608301526140aa8187613fce565b905081810360808301526140be8186613fce565b905081810360a08301526140d28185613fce565b905081810360c08301526140e68184613fce565b9998505050505050505050565b6101008101614102828b613f63565b8181036020830152614114818a613fce565b90506141236040830189614006565b81810360608301526141358188613fce565b905081810360808301526141498187613fce565b905081810360a083015261415d8186613fce565b905081810360c08301526141718185613fce565b905081810360e08301526141858184613fce565b9a9950505050505050505050565b602080825281016141a48184613f6c565b9392505050565b6020810161396d8284613fc5565b602080825281016141a48184613fce565b60e080825281016141db818a613fce565b905081810360208301526141ef8189613fce565b905081810360408301526142038188613fce565b905081810360608301526142178187613fce565b9050818103608083015261422b8186613fce565b905061423a60a0830185614006565b81810360c08301526140e68184613fce565b60c0808252810161425d8189613fce565b905061426c6020830188614006565b818103604083015261427e8187613fce565b905081810360608301526142928186613fce565b905081810360808301526142a68185613fce565b905081810360a08301526142ba8184613fce565b98975050505050505050565b6020810161396d8284614006565b608081016142e28287614006565b6142ef6020830186613f63565b6142fc6040830185613f63565b6140606060830184614006565b608081016143178287614006565b81810360208301526143298186613fce565b90506143386040830185614006565b818103606083015261434a8184613fce565b9695505050505050565b6101208101614363828c614006565b614370602083018b614006565b8181036040830152614382818a613fce565b905081810360608301526143968189613fce565b90506143a56080830188614006565b6143b260a0830187614006565b6143bf60c0830186614006565b81810360e08301526143d18185613fce565b90508181036101008301526143e68184613fce565b9b9a5050505050505050505050565b60405181810167ffffffffffffffff8111828210171561441457600080fd5b604052919050565b600067ffffffffffffffff82111561443357600080fd5b506020601f91909101601f19160190565b60200190565b5190565b90815260200190565b600061396d82614467565b151590565b600160a060020a031690565b600061396d82600061396d82614457565b82818337506000910152565b60005b838110156144ab578181015183820152602001614493565b838111156144ba576000848401525b50505050565b601f01601f191690565b6144d381614457565b81146144de57600080fd5b50565b6144d381610f1956fea365627a7a72315820732107abd4683393e1c6a4942e45f732cbdd88bd7af133117675cfc6010fc67f6c6578706572696d656e74616cf564736f6c63430005100040",
  "source": "//pragma solidity ^0.8.12;\r\n//pragma solidity >= 0.8.0;\r\npragma solidity >=0.5.2;\r\npragma experimental ABIEncoderV2;\r\n\r\n//import \"@openzeppelin/contracts/utils/Strings.sol\";\r\ncontract Land {\r\n    struct owner {\r\n        address id;\r\n        string name;\r\n        uint age;\r\n        string idNo;\r\n        string PANPin;\r\n        string landsOwned;\r\n        string document;\r\n    }\r\n\r\n    struct Landreg {\r\n        uint id;\r\n        uint area;\r\n        string city;\r\n        string state;\r\n        uint landPrice;\r\n        uint propertyPID;\r\n        uint physicalSurveyNumber;\r\n        string ipfsHash;\r\n        string document;\r\n    }\r\n\r\n    struct Buyer {\r\n        address id;\r\n        string name;\r\n        uint age;\r\n        string city;\r\n        string idNo;\r\n        string PANPin;\r\n        string document;\r\n        string email;\r\n    }\r\n\r\n    struct Seller {\r\n        address id;\r\n        string name;\r\n        uint age;\r\n        string idNo;\r\n        string PANPin;\r\n        string landsOwned;\r\n        string document;\r\n    }\r\n\r\n    struct LandInspector {\r\n        uint id;\r\n        string name;\r\n        uint age;\r\n        string designation;\r\n    }\r\n\r\n    struct LandRequest {\r\n        uint reqId;\r\n        address sellerId;\r\n        address buyerId;\r\n        uint landId;\r\n        // bool requestStatus;\r\n        // bool requested;\r\n    }\r\n\r\n    //key value pairs\r\n    mapping(uint => Landreg) public lands;\r\n    mapping(uint => LandInspector) public InspectorMapping;\r\n    mapping(address => Seller) public SellerMapping;\r\n    mapping(address => Buyer) public BuyerMapping;\r\n    mapping(uint => LandRequest) public RequestsMapping;\r\n\r\n    mapping(address => bool) public RegisteredAddressMapping;\r\n    mapping(address => bool) public RegisteredSellerMapping;\r\n    mapping(address => bool) public RegisteredBuyerMapping;\r\n    mapping(address => bool) public SellerVerification;\r\n    mapping(address => bool) public SellerRejection;\r\n    mapping(address => bool) public BuyerVerification;\r\n    mapping(address => bool) public BuyerRejection;\r\n    mapping(uint => bool) public LandVerification;\r\n    mapping(uint => address) public LandOwner;\r\n    mapping(uint => bool) public RequestStatus;\r\n    mapping(uint => bool) public RequestedLands;\r\n    mapping(uint => bool) public PaymentReceived;\r\n    mapping(uint => owner[]) public land_id_to_ownermap;\r\n\r\n    address public Land_Inspector;\r\n    address[] public sellers;\r\n    address[] public buyers;\r\n    owner[] public heirarchy_arr;\r\n\r\n    uint public landsCount;\r\n    uint public inspectorsCount;\r\n    uint public sellersCount;\r\n    uint public buyersCount;\r\n    uint public requestsCount;\r\n\r\n    event Registration(address _registrationId);\r\n    event AddingLand(uint indexed _landId);\r\n    event Landrequested(address _sellerId);\r\n    event requestApproved(address _buyerId);\r\n    event Verified(address _id);\r\n    event Rejected(address _id);\r\n\r\n    constructor() public {\r\n        Land_Inspector = msg.sender;\r\n        addLandInspector(\"Inspector 1\", 45, \"Tehsil Manager\");\r\n    }\r\n\r\n    function concat(\r\n        string memory a,\r\n        string memory b,\r\n        string memory c\r\n    ) public pure returns (string memory) {\r\n        bytes memory ba = bytes(a);\r\n        bytes memory bb = bytes(b);\r\n        bytes memory bc = bytes(c);\r\n        string memory abc = new string(ba.length + bb.length + bc.length);\r\n        bytes memory babc = bytes(abc);\r\n        uint k = 0;\r\n        for (uint i = 0; i < ba.length; i++) babc[k++] = ba[i];\r\n        for (uint i = 0; i < bb.length; i++) babc[k++] = bb[i];\r\n        for (uint i = 0; i < bc.length; i++) babc[k++] = bc[i];\r\n        return string(babc);\r\n    }\r\n\r\n    function addLandInspector(\r\n        string memory _name,\r\n        uint _age,\r\n        string memory _designation\r\n    ) private {\r\n        inspectorsCount++;\r\n        InspectorMapping[inspectorsCount] = LandInspector(\r\n            inspectorsCount,\r\n            _name,\r\n            _age,\r\n            _designation\r\n        );\r\n    }\r\n\r\n    function getLandsCount() public view returns (uint) {\r\n        return landsCount;\r\n    }\r\n\r\n    function getBuyersCount() public view returns (uint) {\r\n        return buyersCount;\r\n    }\r\n\r\n    function getSellersCount() public view returns (uint) {\r\n        return sellersCount;\r\n    }\r\n\r\n    function getRequestsCount() public view returns (uint) {\r\n        return requestsCount;\r\n    }\r\n\r\n    function getArea(uint i) public view returns (uint) {\r\n        return lands[i].area;\r\n    }\r\n\r\n    function getCity(uint i) public view returns (string memory) {\r\n        return lands[i].city;\r\n    }\r\n\r\n    function getState(uint i) public view returns (string memory) {\r\n        return lands[i].state;\r\n    }\r\n\r\n    // function getStatus(uint i) public view returns (bool) {\r\n    //     return lands[i].verificationStatus;\r\n    // }\r\n    function getPrice(uint i) public view returns (uint) {\r\n        return lands[i].landPrice;\r\n    }\r\n\r\n    function getPID(uint i) public view returns (uint) {\r\n        return lands[i].propertyPID;\r\n    }\r\n\r\n    function getSurveyNumber(uint i) public view returns (uint) {\r\n        return lands[i].physicalSurveyNumber;\r\n    }\r\n\r\n    function getImage(uint i) public view returns (string memory) {\r\n        return lands[i].ipfsHash;\r\n    }\r\n\r\n    function getDocument(uint i) public view returns (string memory) {\r\n        return lands[i].document;\r\n    }\r\n\r\n    function getLandOwner(uint id) public view returns (address) {\r\n        return LandOwner[id];\r\n    }\r\n\r\n    function verifySeller(address _sellerId) public {\r\n        require(isLandInspector(msg.sender));\r\n\r\n        SellerVerification[_sellerId] = true;\r\n        emit Verified(_sellerId);\r\n    }\r\n\r\n    function rejectSeller(address _sellerId) public {\r\n        require(isLandInspector(msg.sender));\r\n\r\n        SellerRejection[_sellerId] = true;\r\n        emit Rejected(_sellerId);\r\n    }\r\n\r\n    function verifyBuyer(address _buyerId) public {\r\n        require(isLandInspector(msg.sender));\r\n\r\n        BuyerVerification[_buyerId] = true;\r\n        emit Verified(_buyerId);\r\n    }\r\n\r\n    function rejectBuyer(address _buyerId) public {\r\n        require(isLandInspector(msg.sender));\r\n\r\n        BuyerRejection[_buyerId] = true;\r\n        emit Rejected(_buyerId);\r\n    }\r\n\r\n    function verifyLand(uint _landId) public {\r\n        require(isLandInspector(msg.sender));\r\n\r\n        LandVerification[_landId] = true;\r\n    }\r\n\r\n    function isLandVerified(uint _id) public view returns (bool) {\r\n        if (LandVerification[_id]) {\r\n            return true;\r\n        }\r\n    }\r\n\r\n    function isVerified(address _id) public view returns (bool) {\r\n        if (SellerVerification[_id] || BuyerVerification[_id]) {\r\n            return true;\r\n        }\r\n    }\r\n\r\n    function isRejected(address _id) public view returns (bool) {\r\n        if (SellerRejection[_id] || BuyerRejection[_id]) {\r\n            return true;\r\n        }\r\n    }\r\n\r\n    function isSeller(address _id) public view returns (bool) {\r\n        if (RegisteredSellerMapping[_id]) {\r\n            return true;\r\n        }\r\n    }\r\n\r\n    function isLandInspector(address _id) public view returns (bool) {\r\n        if (Land_Inspector == _id) {\r\n            return true;\r\n        } else {\r\n            return false;\r\n        }\r\n    }\r\n\r\n    function isBuyer(address _id) public view returns (bool) {\r\n        if (RegisteredBuyerMapping[_id]) {\r\n            return true;\r\n        }\r\n    }\r\n\r\n    function isRegistered(address _id) public view returns (bool) {\r\n        if (RegisteredAddressMapping[_id]) {\r\n            return true;\r\n        }\r\n    }\r\n\r\n    function addLand(\r\n        uint _area,\r\n        string memory _city,\r\n        string memory _state,\r\n        uint landPrice,\r\n        uint _propertyPID,\r\n        uint _surveyNum,\r\n        string memory _ipfsHash,\r\n        string memory _document\r\n    ) public {\r\n        require((isSeller(msg.sender)) && (isVerified(msg.sender)));\r\n        landsCount++;\r\n        lands[landsCount] = Landreg(\r\n            landsCount,\r\n            _area,\r\n            _city,\r\n            _state,\r\n            landPrice,\r\n            _propertyPID,\r\n            _surveyNum,\r\n            _ipfsHash,\r\n            _document\r\n        );\r\n        LandOwner[landsCount] = msg.sender;\r\n        string memory name;\r\n        uint age;\r\n        string memory idNo;\r\n        string memory PANPin;\r\n        string memory landsOwned;\r\n        string memory document;\r\n        (name, age, idNo, PANPin, landsOwned, document) = getSellerDetails(\r\n            msg.sender\r\n        );\r\n        owner memory newOwner = owner({\r\n            id: msg.sender,\r\n            name: name,\r\n            age: age,\r\n            idNo: idNo,\r\n            PANPin: PANPin,\r\n            landsOwned: landsOwned,\r\n            document: document\r\n        });\r\n        land_id_to_ownermap[landsCount].push(newOwner);\r\n\r\n        // emit AddingLand(landsCount);\r\n    }\r\n\r\n    //registration of seller\r\n    function registerSeller(\r\n        string memory _name,\r\n        uint _age,\r\n        string memory _idNo,\r\n        string memory _PANPin,\r\n        string memory _landsOwned,\r\n        string memory _document\r\n    ) public {\r\n        //require that Seller is not already registered\r\n        require(!RegisteredAddressMapping[msg.sender]);\r\n\r\n        RegisteredAddressMapping[msg.sender] = true;\r\n        RegisteredSellerMapping[msg.sender] = true;\r\n        sellersCount++;\r\n        SellerMapping[msg.sender] = Seller(\r\n            msg.sender,\r\n            _name,\r\n            _age,\r\n            _idNo,\r\n            _PANPin,\r\n            _landsOwned,\r\n            _document\r\n        );\r\n        sellers.push(msg.sender);\r\n        emit Registration(msg.sender);\r\n    }\r\n\r\n    function updateSeller(\r\n        string memory _name,\r\n        uint _age,\r\n        string memory _idNo,\r\n        string memory _PANPin,\r\n        string memory _landsOwned\r\n    ) public {\r\n        //require that Seller is already registered\r\n        require(\r\n            RegisteredAddressMapping[msg.sender] &&\r\n                (SellerMapping[msg.sender].id == msg.sender)\r\n        );\r\n\r\n        SellerMapping[msg.sender].name = _name;\r\n        SellerMapping[msg.sender].age = _age;\r\n        SellerMapping[msg.sender].idNo = _idNo;\r\n        SellerMapping[msg.sender].PANPin = _PANPin;\r\n        SellerMapping[msg.sender].landsOwned = _landsOwned;\r\n    }\r\n\r\n    function getSeller() public view returns (address[] memory) {\r\n        return (sellers);\r\n    }\r\n\r\n    function getSellerDetails(\r\n        address i\r\n    )\r\n        public\r\n        view\r\n        returns (\r\n            string memory,\r\n            uint,\r\n            string memory,\r\n            string memory,\r\n            string memory,\r\n            string memory\r\n        )\r\n    {\r\n        return (\r\n            SellerMapping[i].name,\r\n            SellerMapping[i].age,\r\n            SellerMapping[i].idNo,\r\n            SellerMapping[i].PANPin,\r\n            SellerMapping[i].landsOwned,\r\n            SellerMapping[i].document\r\n        );\r\n    }\r\n\r\n    function registerBuyer(\r\n        string memory _name,\r\n        uint _age,\r\n        string memory _city,\r\n        string memory _idNo,\r\n        string memory _PANPin,\r\n        string memory _document,\r\n        string memory _email\r\n    ) public {\r\n        //require that Buyer is not already registered\r\n        require(!RegisteredAddressMapping[msg.sender]);\r\n\r\n        RegisteredAddressMapping[msg.sender] = true;\r\n        RegisteredBuyerMapping[msg.sender] = true;\r\n        buyersCount++;\r\n        BuyerMapping[msg.sender] = Buyer(\r\n            msg.sender,\r\n            _name,\r\n            _age,\r\n            _city,\r\n            _idNo,\r\n            _PANPin,\r\n            _document,\r\n            _email\r\n        );\r\n        buyers.push(msg.sender);\r\n\r\n        emit Registration(msg.sender);\r\n    }\r\n\r\n    function updateBuyer(\r\n        string memory _name,\r\n        uint _age,\r\n        string memory _city,\r\n        string memory _idNo,\r\n        string memory _email,\r\n        string memory _PANPin\r\n    ) public {\r\n        //require that Buyer is already registered\r\n        require(\r\n            RegisteredAddressMapping[msg.sender] &&\r\n                (BuyerMapping[msg.sender].id == msg.sender)\r\n        );\r\n\r\n        BuyerMapping[msg.sender].name = _name;\r\n        BuyerMapping[msg.sender].age = _age;\r\n        BuyerMapping[msg.sender].city = _city;\r\n        BuyerMapping[msg.sender].idNo = _idNo;\r\n        BuyerMapping[msg.sender].email = _email;\r\n        BuyerMapping[msg.sender].PANPin = _PANPin;\r\n    }\r\n\r\n    function getBuyer() public view returns (address[] memory) {\r\n        return (buyers);\r\n    }\r\n\r\n    function getBuyerDetails(\r\n        address i\r\n    )\r\n        public\r\n        view\r\n        returns (\r\n            string memory,\r\n            string memory,\r\n            string memory,\r\n            string memory,\r\n            string memory,\r\n            uint,\r\n            string memory\r\n        )\r\n    {\r\n        return (\r\n            BuyerMapping[i].name,\r\n            BuyerMapping[i].city,\r\n            BuyerMapping[i].PANPin,\r\n            BuyerMapping[i].document,\r\n            BuyerMapping[i].email,\r\n            BuyerMapping[i].age,\r\n            BuyerMapping[i].idNo\r\n        );\r\n    }\r\n\r\n    function requestLand(address _sellerId, uint _landId) public {\r\n        require(isBuyer(msg.sender) && isVerified(msg.sender));\r\n\r\n        requestsCount++;\r\n        RequestsMapping[requestsCount] = LandRequest(\r\n            requestsCount,\r\n            _sellerId,\r\n            msg.sender,\r\n            _landId\r\n        );\r\n        RequestStatus[requestsCount] = false;\r\n        RequestedLands[requestsCount] = true;\r\n\r\n        emit Landrequested(_sellerId);\r\n    }\r\n\r\n    function getRequestDetails(\r\n        uint i\r\n    ) public view returns (address, address, uint, bool) {\r\n        return (\r\n            RequestsMapping[i].sellerId,\r\n            RequestsMapping[i].buyerId,\r\n            RequestsMapping[i].landId,\r\n            RequestStatus[i]\r\n        );\r\n    }\r\n\r\n    function isRequested(uint _id) public view returns (bool) {\r\n        if (RequestedLands[_id]) {\r\n            return true;\r\n        }\r\n    }\r\n\r\n    function isApproved(uint _id) public view returns (bool) {\r\n        if (RequestStatus[_id]) {\r\n            return true;\r\n        }\r\n    }\r\n\r\n    function approveRequest(uint _reqId) public {\r\n        require((isSeller(msg.sender)) && (isVerified(msg.sender)));\r\n\r\n        RequestStatus[_reqId] = true;\r\n    }\r\n\r\n    function LandOwnershipTransfer(uint _landId, address _newOwner) public {\r\n        require(isLandInspector(msg.sender));\r\n\r\n        LandOwner[_landId] = _newOwner;\r\n        address id;\r\n        string memory name;\r\n        uint age;\r\n        string memory city;\r\n        string memory idNo;\r\n        string memory PANPin;\r\n        string memory document;\r\n        string memory email;\r\n        (name, city, PANPin, document, email, age, idNo) = getBuyerDetails(\r\n            _newOwner\r\n        );\r\n        owner memory newowner = owner({\r\n            id: _newOwner,\r\n            name: name,\r\n            age: 0,\r\n            idNo: idNo,\r\n            PANPin: PANPin,\r\n            landsOwned: \"land_owned\",\r\n            document: \"document\"\r\n        });\r\n        land_id_to_ownermap[landsCount].push(newowner);\r\n    }\r\n\r\n    function isPaid(uint _landId) public view returns (bool) {\r\n        if (PaymentReceived[_landId]) {\r\n            return true;\r\n        }\r\n    }\r\n\r\n    function payment(address payable _receiver, uint _landId) public payable {\r\n        PaymentReceived[_landId] = true;\r\n        _receiver.transfer(msg.value);\r\n    }\r\n\r\n    function TrackLand(uint landid) public view returns (string memory) {\r\n        uint i;\r\n        string memory result;\r\n        string memory data;\r\n        for (i = 0; i < land_id_to_ownermap[landid].length; i++) {\r\n            {\r\n                data = concat(\r\n                    land_id_to_ownermap[landid][i].idNo,\r\n                    \":\",\r\n                    land_id_to_ownermap[landid][i].name\r\n                );\r\n                result = concat(result, \",\", data);\r\n            }\r\n        }\r\n        return (result);\r\n    }\r\n}\r\n",
  "sourcePath": "C:\\Users\\Swetha M S\\Desktop\\land\\contracts\\Land.sol",
  "compiler": {
    "name": "solc",
    "version": "0.5.16+commit.9c3226ce.Emscripten.clang"
  },
  "schemaVersion": "3.4.13",
  "updatedAt": "2023-05-04T09:55:47.339Z",
  "networkType": "ethereum",
  "devdoc": {
    "methods": {}
  },
  "userdoc": {
    "methods": {}
  }
}